:100000000C9461000C947E000C947E000C947E0095
:100010000C947E000C947E000C947E000C947E0068
:100020000C947E000C947E000C947E000C947E0058
:100030000C947E000C947E000C947E000C947E0048
:100040000C949E010C947E000C947E000C947E0017
:100050000C947E000C947E000C947E000C947E0028
:100060000C947E000C947E00000000002400270009
:100070002A0000000000250028002B0000000000DE
:1000800023002600290004040404040404040202DA
:100090000202020203030303030301020408102007
:1000A0004080010204081020010204081020000012
:1000B0000008000201000003040700000000000027
:1000C000000011241FBECFEFD8E0DEBFCDBF11E08E
:1000D000A0E0B1E0EEE0F9E002C005900D92AC3096
:1000E000B107D9F721E0ACE0B1E001C01D92A53124
:1000F000B207E1F70E94E8010C9485040C9400001B
:10010000833081F028F4813099F08230A9F008958D
:100110008730A9F08830C9F08430B1F48091800034
:100120008F7D03C0809180008F7780938000089539
:1001300084B58F7784BD089584B58F7DFBCF809182
:10014000B0008F778093B00008958091B0008F7DCC
:10015000F9CFCF93DF93282F30E0F901E255FF4F1D
:100160008491F901E656FF4FD491F901EA57FF4F08
:10017000C491CC23A1F081110E948000EC2FF0E00B
:10018000EE0FFF1FE458FF4FA591B491EC91ED23C2
:1001900081E090E009F480E0DF91CF91089580E064
:1001A00090E0FACF1F93CF93DF93282F30E0F9012F
:1001B000E255FF4F8491F901E656FF4FD491F901C2
:1001C000EA57FF4FC491CC23A9F0162F81110E944A
:1001D0008000EC2FF0E0EE0FFF1FEE58FF4FA591CF
:1001E000B4918FB7F894EC91111108C0D095DE232B
:1001F000DC938FBFDF91CF911F910895DE2BF8CF55
:10020000CF93DF9390E0FC01E656FF4F24918A578D
:100210009F4FFC0184918823D1F090E0880F991FB3
:10022000FC01E859FF4FA591B491FC01EE58FF4F36
:10023000C591D491623071F49FB7F8943C91822FAC
:10024000809583238C93E8812E2B28839FBFDF9199
:10025000CF9108958FB7F894EC912E2B2C938FBFEC
:10026000F6CF3FB7F8948091110190911201A091BF
:100270001301B091140126B5A89B05C02F3F19F0BA
:100280000196A11DB11D3FBFBA2FA92F982F882716
:10029000BC01CD01620F711D811D911D42E0660FF1
:1002A000771F881F991F4A95D1F708958F929F92C3
:1002B000AF92BF92CF92DF92EF92FF924B015C011F
:1002C0000E9431016B017C010E9431016C197D0992
:1002D0008E099F09683E734081059105A8F321E0CE
:1002E000821A9108A108B10888EEC80E83E0D81ED2
:1002F000E11CF11C81149104A104B10429F7FF90C1
:10030000EF90DF90CF90BF90AF909F908F90089527
:10031000CF93C82F61E00E94D20064EF71E080E0CB
:1003200090E00E94560160E08C2F0E94D20064EFA2
:1003300071E080E090E0CF910C9456011F920F92F3
:100340000FB60F9211242F933F938F939F93AF93E8
:10035000BF9380910D0190910E01A0910F01B0917A
:10036000100130910C0123E0230F2D3758F5019631
:10037000A11DB11D20930C0180930D0190930E01DE
:10038000A0930F01B093100180911101909112017F
:10039000A0911301B09114010196A11DB11D80938C
:1003A000110190931201A0931301B0931401BF9116
:1003B000AF919F918F913F912F910F900FBE0F9012
:1003C0001F90189526E8230F0296A11DB11DD2CFCC
:1003D000CF93DF93CDB7DEB7C456D1090FB6F894EB
:1003E000DEBF0FBECDBF789484B5826084BD84B576
:1003F000816084BD85B5826085BD85B5816085BD20
:1004000080916E00816080936E00109281008091D7
:10041000810082608093810080918100816080935F
:100420008100809180008160809380008091B10084
:1004300084608093B1008091B00081608093B000AF
:1004400080917A00846080937A0080917A00826043
:1004500080937A0080917A00816080937A00809105
:100460007A00806880937A001092C10061E080E099
:100470000E94000161E081E00E94000161E082E0F1
:100480000E94000161E083E00E94000162E088E0D8
:100490000E94000162E089E00E94000162E08AE0BF
:1004A0000E94000162E08BE00E94000160E080E0B9
:1004B0000E94D20060E081E00E94D20060E082E011
:1004C0000E94D20060E083E00E94D200CE0101963B
:1004D0007C014E0195E6890E911C64E0462E512C5C
:1004E000612C712C54E6252E10E000E088E00E947B
:1004F000A900892B49F189E00E94A900892B21F1EB
:100500008AE00E94A900892BF9F08BE00E94A900E3
:10051000892BD1F0F801EE0FFF1FEC5FFE4FD0806A
:1005200061E08D2D0E94D2006AEF70E080E090E0E3
:100530000E94560160E08D2D0E94D2000F5F1F4F78
:100540000430110599F6D0CF60E080E00E94D2001F
:1005500060E081E00E94D20060E082E00E94D20070
:1005600060E083E00E94D20068EC70E080E090E000
:100570000E94560161E080E00E94D20061E081E0CB
:100580000E94D20061E082E00E94D20061E083E03C
:100590000E94D20068EC70E080E090E00E9456017A
:1005A00060E080E00E94D20060E081E00E94D20022
:1005B00060E082E00E94D20060E083E00E94D2000E
:1005C00068EC70E080E090E00E94560161E080E01D
:1005D0000E94D20061E081E00E94D20061E082E0EE
:1005E0000E94D20061E083E00E94D20068EC70E0DB
:1005F00080E090E00E94560160E080E00E94D2001E
:1006000060E081E00E94D20060E082E00E94D200BF
:1006100060E083E00E94D20068EE73E080E090E04A
:100620000E945601F701822D11928A95E9F7570130
:10063000F7018FEF9FEF819391938E169F06C9F775
:10064000D12CC12C0E94CA03A30192010E94220452
:10065000F501619371935F0110E0812F90E0C8165E
:10066000D9065CF0880F991FF701E80FF91F808108
:1006700091810E9488011F5FF0CF312C032D10E083
:10068000C016D10654F188E00E94A900009789F0B5
:1006900089E00E94A900892BD1F08AE00E94A9007C
:1006A000892BC1F08BE00E94A900892B61F783E0C0
:1006B00090E0000F111FF701E00FF11F2081318141
:1006C00028173907C9F40E9488013394D7CF81E0F5
:1006D00090E0EFCF82E090E0ECCF80E0FFEFCF1A28
:1006E000DF0A882309F4AECF80E090E0892B09F47B
:1006F000FBCE0E940000F6CE81E0F0CF8F929F9259
:10070000AF92BF92CF92DF92EF92FF92CF93DF939F
:10071000EC01688179818A819B8161157105810570
:10072000910521F464E279ED8BE597E02DE133EF5B
:1007300041E050E00E94220449015A019B01AC01B2
:10074000A7EAB1E40E9441046B017C01ACEEB4EF76
:10075000A50194010E944F04C60ED71EE81EF91E83
:10076000F7FE06C081E0C81AD108E10880E8F80A5F
:10077000C882D982EA82FB82C701B6019F77DF91E6
:10078000CF91FF90EF90DF90CF90BF90AF909F9070
:100790008F9008958F929F92AF92BF92CF92DF92E7
:1007A000EF92FF926091000170910101809102012E
:1007B00090910301611571058105910521F464E2B1
:1007C00079ED8BE597E02DE133EF41E050E00E94B9
:1007D000220449015A019B01AC01A7EAB1E40E943D
:1007E00041046B017C01ACEEB4EFA50194010E94C1
:1007F0004F04C60ED71EE81EF91EF7FE06C081E0A4
:10080000C81AD108E10880E8F80AC0920001D09225
:100810000101E0920201F0920301C701B6019F7746
:10082000FF90EF90DF90CF90BF90AF909F908F9010
:1008300008956093000170930101809302019093E9
:1008400003010895052E97FB1EF400940E943904BD
:1008500057FD07D00E94540407FC03D04EF40C94BB
:10086000390450954095309521953F4F4F4F5F4F3C
:10087000089590958095709561957F4F8F4F9F4F0C
:1008800008950E947604A59F900DB49F900DA49F9B
:10089000800D911D11240895B7FF0C9441040E940E
:1008A0004104821B930B0895A1E21A2EAA1BBB1BC5
:1008B000FD010DC0AA1FBB1FEE1FFF1FA217B3072C
:1008C000E407F50720F0A21BB30BE40BF50B661F42
:1008D000771F881F991F1A9469F760957095809506
:1008E00090959B01AC01BD01CF010895A29FB0017D
:1008F000B39FC001A39F700D811D1124911DB29F54
:0E090000700D811D1124911D0895F894FFCFF4
:0C090E00010000000000010002000300D6
:00000001FF
